:020000040000FA
:060000000A128A11FC2F18
:100F1A0083160313071587148312031391017C3078
:100F2A0083160313920031308312031395000C3099
:100F3A0097009D0197121712831603130711871042
:100F4A0083120313871092019210121012150800CF
:100F5A0083160313071587148312031391017C3038
:100F6A008316031392006330831203139B000C3021
:100F7A009D0097019D121D128316031387100711F6
:100F8A00831203130711920192101210121508000E
:100F9A008316031789018801073083160313950006
:100FAA008600081081138312031308148312031393
:100FBA000618E02FE12FEB2F061CE42FE52FE12F77
:100FCA000A128A118D270A128A11DB2F8618EE2F30
:100FDA00EF2FDB2F861CF22FF32FEF2F0A128A1125
:100FEA00AD270A128A11DB2F0A128A1100288301FF
:060FFA000A128A11CD2F3E
:04400E00F220FF3F5E
:00000001FF
