:020000040000FA
:060000000A128A11122809
:10000800FE00030E83120313A3000408A4000A08C9
:10001800A5007F08A6000A128A111F280A128A1151
:10002800152883120313B501B601B701B80183017E
:100038000A128A11EC288B10B701B8010A128A112A
:1000480063220A128A11403083120313A000200889
:10005800F30000300A128A1125250A128A110A12A1
:100068008A1196250A128A11003A031D3C283D2858
:10007800332861283708013E84000A128A110623B2
:100088000A128A11A0002008F30001300A128A110E
:1000980025250A128A110A128A1196250A128A112E
:1000A800003A031D582859284F280130831203139A
:1000B800B7070318B80A0030B807831203133708C4
:1000C800013E84000A128A1106230A128A11993AFB
:1000D800031D6F2870283E280C300A128A11FA2353
:1000E8000A128A11F60100300A128A11EE250A1244
:1000F8008A1183120313B701B80100303802103097
:1001080003193702031C89288A288B28A128370855
:10011800533E84000A128A1106230A128A110A120F
:100128008A11FA230A128A11013083120313B707BE
:100138000318B80A0030B8078128F601F60A01301A
:100148000A128A11EE250A128A1183120313B701C3
:10015800B801003038020E3003193702031CB528E5
:10016800B628B728CD283708833E84000A128A119A
:1001780006230A128A110A128A11FA230A128A110C
:10018800013083120313B7070318B80A0030B80701
:10019800AD280B3083120313A2002630A1005D3076
:1001A800A000A00BD528A10BD528A20BD52801307B
:1001B80083120313B5000030B6002608FF00250897
:1001C8008A0024088400230E8300FE0E7E0E090098
:1001D80083160317890188010130831603139500DC
:1001E800860081138B178B100B16011783120313CC
:1001F800B701B8010A128A11B4210A128A114030D3
:1002080083120313B4003408AA0000300A128A11BA
:10021800E6240A128A110A128A115E250A128A1124
:10022800003A031D182919290F293D293708323E9C
:1002380084000A128A1106230A128A11B4003408AB
:10024800AA0001300A128A11E6240A128A110A1237
:100258008A115E250A128A11003A031D34293529AC
:100268002B29013083120313B7070318B80A00308B
:10027800B807831203133708323E84000A128A1122
:1002880006230A128A11993A031D4B294C291A2967
:100298000C300A128A119C230A128A118312031342
:1002A800AD0100300A128A11C6250A128A1183127A
:1002B8000313B701B80100303802103003193702B0
:1002C800031C6729682969297F293708733E840038
:1002D8000A128A1106230A128A110A128A119C2309
:1002E8000A128A11013083120313B7070318B80AD8
:1002F8000030B8075F29AD01AD0A00300A128A1133
:10030800C6250A128A1183120313B701B8010030F7
:100318003802103003193702031C932994299529B0
:10032800AB293708633E84000A128A1106230A1291
:100338008A110A128A119C230A128A110130831227
:100348000313B7070318B80A0030B8078B29350814
:1003580036040319B029B129AB290A128A111228C7
:1003680083160313881188100811081288120813BD
:100378008813143083120313AE007930AD00AD0B2F
:10038800C329AE0BC32983120313881008118811DF
:1003980003300A128A1156240A128A110D30831268
:1003A8000313AE00FB30AD00AD0BD829AE0BD82936
:1003B80003300A128A1156240A128A110D30831248
:1003C8000313AE00FB30AD00AD0BE829AE0BE829F6
:1003D80003300A128A1156240A128A110D30831228
:1003E8000313AE00FB30AD00AD0BF829AE0BF829B6
:1003F80002300A128A1156240A128A110A128A1124
:100408005E250A128A11003A031D0B2A0C2A022AB9
:10041800283083120313AD002D08AA0000300A12F9
:100428008A11E6240A128A110A128A115E250A1212
:100438008A11003A031D212A222A182A0C30831215
:100448000313AD002D08AA0000300A128A11E62411
:100458000A128A110A128A115E250A128A11003AB2
:10046800031D372A382A2E2A83120313AA01AA0A3F
:1004780000300A128A11E6240A128A110A128A1115
:100488005E250A128A11003A031D4B2A4C2A422A79
:10049800063083120313AD002D08AA0000300A129B
:1004A8008A11E6240A128A110A128A115E250A1292
:1004B8008A11003A031D612A622A582A0800831605
:1004C800031388118810081108128812081388135A
:1004D8001430F7007930F600F60B702AF70B702A03
:1004E800752A8312031388100811881103300A1221
:1004F8008A11A2240A128A110D30F700FB30F60087
:10050800F60B842AF70B842A892A03300A128A11E7
:10051800A2240A128A110D30F700FB30F600F60B00
:10052800932AF70B932A982A03300A128A11A224D5
:100538000A128A110D30F700FB30F600F60BA22ADA
:10054800F70BA22AA72A02300A128A11A2240A1239
:100558008A110A128A1196250A128A11003A031D75
:10056800B62AB72AAD2A2830F6007608F3000030FC
:100578000A128A1125250A128A110A128A11962549
:100588000A128A11003A031DCA2ACB2AC12A0C3042
:10059800F6007608F30000300A128A1125250A129F
:1005A8008A110A128A1196250A128A11003A031D25
:1005B800DE2ADF2AD52AF301F30A00300A128A114B
:1005C80025250A128A110A128A1196250A128A11F9
:1005D800003A031DF02AF12AE72A0630F6007608C9
:1005E800F30000300A128A1125250A128A110A120C
:1005F8008A1196250A128A11003A031D042B052B2D
:10060800FB2A080003308A000408840A82070034A1
:10061800013405340A3404340A340C340734003401
:100628000234043400341234123412340C340034DA
:100638000C34123400340C34123412340C340034B8
:100648000C3412340C3412340F34003404340034B3
:100658000A340134083408340834003408340034C7
:10066800003415340A3400340C3414340F34003494
:10067800993400340C34123412340F3400340434F6
:1006880000340434003404340434043400340434AE
:1006980000340334013412341234123412340C345A
:1006A80000340E34093409341D34093409340E3445
:1006B8000034993454346834693420346B34003449
:1006C80074342034743468340134633420346D3421
:1006D80002346E34033448345634543431343534A7
:1006E80042342D34313439343534313437343134BB
:1006F800373431345034683400346D342034543451
:1007080068340134203441346E346834203454342D
:10071800683402344C340334703420345434723422
:1007280004346E34683420344E34673405347434F9
:1007380083120313B300E62BAA01AA0A00300A1297
:100748008A11E6240A128A110A128A115E250A12EF
:100758008A11003A031DB12BB22BA82BF92BAD013E
:10076800AD0A00300A128A11C6250A128A11F92B1D
:100778001030B1003108AA0000300A128A11E624AC
:100788000A128A110A128A115E250A128A11003A7F
:10079800031DCF2BD02BC62BF92B3308B100310802
:1007A800AA0001300A128A11E6240A128A110A12D2
:1007B8008A115E250A128A11003A031DE42BE52BE3
:1007C800DB2BF92B3308B100B2013208003A0319C8
:1007D800EE2BD12B3108083A0319BC2B023A031926
:1007E800B32B063A0319A02BD12B0800FC00422C8E
:1007F800F301F30A00300A128A1125250A128A1118
:100808000A128A1196250A128A11003A031D0D2C24
:100818000E2C042C552CF601F60A00300A128A1107
:10082800EE250A128A11552C1030FA007A08F300C6
:1008380000300A128A1125250A128A110A128A1111
:1008480096250A128A11003A031D2B2C2C2C222CD7
:10085800552C7C08FA007A08F30001300A128A1134
:1008680025250A128A110A128A1196250A128A1156
:10087800003A031D402C412C372C552C7C08FA00DB
:10088800FB017B08003A03194A2C2D2C7A08083AF8
:100898000319182C023A03190F2C063A0319FC2BDA
:1008A8002D2C080083120313A800831603130812C3
:1008B800881208138813831203132808A70027082F
:1008C800A9002918682C6C2C8312031308166F2CA6
:1008D800831203130812A918722C762C831203139F
:1008E8008816792C83120313881229197C2C802CE2
:1008F800831203130817832C831203130813A919EF
:10090800862C8A2C8312031388178D2C83120313C9
:100918008813053083120313A700A70B912C942C7E
:10092800831203138815053083120313A700A70B3E
:100938009B2C9E2C8312031388110800F100831648
:10094800031308128812081388137108F00070083E
:10095800F2007218B02CB42C831203130816B72CAB
:10096800831203130812F218BA2CBE2C8312031335
:100978008816C12C8312031388127219C42CC82C30
:10098800831203130817CB2C831203130813F219CD
:10099800CE2CD22C831203138817D52C8312031361
:1009A80088130630F000F00BD72C000083120313D5
:1009B80088150630F000F00BDF2C000083120313BB
:1009C8008811080083120313AC008316031308125E
:1009D800881208138813831203132C080319F52CA3
:1009E800F62CF82C8814F92C881005308312031380
:1009F800AB00AB0BFD2C002D83120313081105303F
:100A080083120313AB00AB0B072D0A2D83120313BC
:100A180088112A08AB0004300310AB0CFF3E031DFD
:100A2800102D2B080A128A1156240A128A118312D1
:100A380003132A080F390A128A1156240A128A1136
:100A48000800F50083160313081288120813881388
:100A580075080319302D312D352D83120313881491
:100A6800382D8312031388100630F400F40B3A2D46
:100A780000008312031308110630F400F40B422D12
:100A880000008312031388117308F4000430031064
:100A9800F40CFF3E031D4B2D74080A128A11A22480
:100AA8000A128A1173080F390A128A11A2240A122B
:100AB8008A11080083160313081688160817881762
:100AC8008312031308158810053083120313A70037
:100AD800A70B6C2D6F2D8312031388150530831215
:100AE8000313A700A70B762D792D0030831203136B
:100AF800881B0130A8008811053083120313A70052
:100B0800A70B842D872D83120313881505308312B4
:100B18000313A700A70B8E2D912D831203138811A1
:100B2800280808008316031308168816081788175C
:100B380083120313081588100630F000F00BA22D5D
:100B480000008312031388150630F000F00BAA2D5D
:100B58000000003083120313881B0130F100881154
:100B68000630F000F00BB62D000083120313881531
:100B78000630F000F00BBE2D00008312031388111D
:100B88007108080083120313AF002D080319CD2D37
:100B9800CE2DD32D4030AE002E08B000D42DB0019C
:100BA8002F08AE002E08B00730088038AE002E0897
:100BB800AA0000300A128A11E6240A128A110A12BF
:100BC8008A115E250A128A11003A031DEC2DED2DBB
:100BD800E32D0800F80076080319F32DF42DF92DFC
:100BE8004030F7007708F900FA2DF9017808F70086
:100BF8007708F90779088038F7007708F30000309C
:100C08000A128A1125250A128A110A128A119625B2
:100C18000A128A11003A031D122E132E092E0800FB
:04400E00F220FF3F5E
:00000001FF
