:020000040000FA
:060000000A128A11FC2F18
:100CB800732EFF30831203138F009C308E000C10AC
:100CC8009010831603130C100B138B13831203134A
:100CD8009012101210140C1C722E732E6F2E0130ED
:100CE800F0020030031CF103F102700A031D802E8C
:100CF800710A031D802E812E5D2E080083160317AE
:100D080089018801831603138801FF3083120313B6
:100D1800880003308316031395008600811383121D
:100D280003130618982E992EA32E061C9C2E9D2E72
:100D3800992E0A128A1193270A128A11932E86185D
:100D4800A62EA72E932E861CAA2EAB2EA72E0A12ED
:100D58008A1132270A128A11932E0A128A11002840
:100D6800700871040319B92EBA2EE92EF501F50A97
:100D7800C82E01300310F00DF10DFF3E031DBE2EED
:100D88000130F4007408F507F11FCB2ECC2EBD2ED0
:100D980071087302031DD22E70087202031CD52E2F
:100DA800D62EDC2E7008F2027108031CF303F3023E
:100DB80001300310F10CF00CFF3E031DDD2E013055
:100DC800F502031DE82EE92ECC2E7308F1007208F7
:100DD800F0000800F501F601700871040319F52EFA
:100DE800F62E2D2FF701F70A042F01300310F00D0E
:100DF800F10DFF3E031DFA2E0130F4007408F707C9
:100E0800F11F072F082FF92E01300310F50DF60DED
:100E1800FF3E031D092F71087302031D152F70086B
:100E28007202031C182F192F202F7008F202710864
:100E3800031CF303F302751401300310F10CF00CDA
:100E4800FF3E031D212F0130F702031D2C2F2D2FEC
:100E5800082F7608F1007508F000080083120313C4
:100E6800A201A301A401A5013D30A6000030A700FE
:100E78000A30F0000030F1002708F3002608F200DD
:100E88000A128A11EE260A128A11710883120313B4
:100E9800A3007008A2000A30F0000030F100270813
:100EA800F3002608F2000A128A11B4260A128A11DF
:100EB800710883120313A5007008A4002308F90021
:100EC8002208F800F80EF90EF030F90578080F3905
:100ED800F904F030F80524087804A00025087904FE
:100EE800A100200888008830F0001330F1000A12B1
:100EF8008A115C260A128A11013083120313A60292
:100F08000030031CA703A702260A031D8F2F270AF8
:100F1800031D8F2F902F3C2FFF308800080083126D
:100F28000313A401A501A601A7013C30A0000030CD
:100F3800A100A801A9010A30F0000030F100290839
:100F4800F3002808F2000A128A11EE260A128A1102
:100F5800710883120313A5007008A4000A30F0007A
:100F68000030F1002908F3002808F2000A128A115B
:100F7800B4260A128A11710883120313A700700895
:100F8800A6002508F9002408F800F80EF90EF0303C
:100F9800F90578080F39F904F030F80526087804BF
:100FA800A20027087904A300220888000130A807B6
:100FB8000318A90A0030A907B830F0000B30F10077
:100FC8000A128A115C260A128A110130831203134D
:100FD800A0020030031CA103A102200A031DF82F60
:100FE800210A031DF82FF92F9F2FFF3088000800D2
:080FF80083010A128A11822E06
:04400E00F220FF3F5E
:00000001FF
